{
  "_format": "hh-sol-artifact-1",
  "contractName": "ShareToken",
  "sourceName": "contracts/ShareTokenInterface.sol",
  "abi": [
    {
      "inputs": [
        {
          "internalType": "address",
          "name": "account",
          "type": "address"
        }
      ],
      "name": "balanceOf",
      "outputs": [
        {
          "internalType": "uint256",
          "name": "",
          "type": "uint256"
        }
      ],
      "stateMutability": "nonpayable",
      "type": "function"
    },
    {
      "inputs": [
        {
          "internalType": "address",
          "name": "to",
          "type": "address"
        },
        {
          "internalType": "uint256",
          "name": "amount",
          "type": "uint256"
        }
      ],
      "name": "mint",
      "outputs": [],
      "stateMutability": "nonpayable",
      "type": "function"
    },
    {
      "inputs": [],
      "name": "totalSupply",
      "outputs": [
        {
          "internalType": "uint256",
          "name": "",
          "type": "uint256"
        }
      ],
      "stateMutability": "nonpayable",
      "type": "function"
    }
  ],
  "bytecode": "0x608060405234801561001057600080fd5b50610226806100206000396000f3fe608060405234801561001057600080fd5b50600436106100415760003560e01c806318160ddd1461004657806340c10f191461006457806370a0823114610080575b600080fd5b61004e6100b0565b60405161005b91906100d9565b60405180910390f35b61007e60048036038101906100799190610183565b6100b5565b005b61009a600480360381019061009591906101c3565b6100b9565b6040516100a791906100d9565b60405180910390f35b600090565b5050565b6000919050565b6000819050919050565b6100d3816100c0565b82525050565b60006020820190506100ee60008301846100ca565b92915050565b600080fd5b600073ffffffffffffffffffffffffffffffffffffffff82169050919050565b6000610124826100f9565b9050919050565b61013481610119565b811461013f57600080fd5b50565b6000813590506101518161012b565b92915050565b610160816100c0565b811461016b57600080fd5b50565b60008135905061017d81610157565b92915050565b6000806040838503121561019a576101996100f4565b5b60006101a885828601610142565b92505060206101b98582860161016e565b9150509250929050565b6000602082840312156101d9576101d86100f4565b5b60006101e784828501610142565b9150509291505056fea26469706673582212205cabebe2ece2244b41c83048613919ce980f323746bbf29f773bac6bec9b5c0d64736f6c63430008090033",
  "linkReferences": {},
  "deployedLinkReferences": {}
}