{
  "_format": "hh-sol-artifact-1",
  "contractName": "Fund",
  "sourceName": "contracts/Fund.sol",
  "abi": [
    {
      "inputs": [
        {
          "internalType": "address",
          "name": "_admin",
          "type": "address"
        },
        {
          "internalType": "uint256",
          "name": "_minBuy",
          "type": "uint256"
        },
        {
          "internalType": "uint256",
          "name": "_minSpendPercent",
          "type": "uint256"
        },
        {
          "internalType": "address",
          "name": "_shareTokenAddress",
          "type": "address"
        }
      ],
      "stateMutability": "nonpayable",
      "type": "constructor"
    },
    {
      "anonymous": false,
      "inputs": [
        {
          "indexed": false,
          "internalType": "address",
          "name": "newStakeholder",
          "type": "address"
        },
        {
          "indexed": false,
          "internalType": "uint256",
          "name": "depositAmt",
          "type": "uint256"
        }
      ],
      "name": "Deposit",
      "type": "event"
    },
    {
      "anonymous": false,
      "inputs": [
        {
          "indexed": false,
          "internalType": "address",
          "name": "receiver",
          "type": "address"
        },
        {
          "indexed": false,
          "internalType": "uint256",
          "name": "spendingAmt",
          "type": "uint256"
        }
      ],
      "name": "NewSpending",
      "type": "event"
    },
    {
      "anonymous": false,
      "inputs": [
        {
          "indexed": false,
          "internalType": "address",
          "name": "executor",
          "type": "address"
        },
        {
          "indexed": false,
          "internalType": "uint256",
          "name": "spendingId",
          "type": "uint256"
        }
      ],
      "name": "SpendingExecuted",
      "type": "event"
    },
    {
      "anonymous": false,
      "inputs": [
        {
          "indexed": false,
          "internalType": "address",
          "name": "voter",
          "type": "address"
        },
        {
          "indexed": false,
          "internalType": "bool",
          "name": "vote",
          "type": "bool"
        }
      ],
      "name": "Vote",
      "type": "event"
    },
    {
      "inputs": [],
      "name": "admin",
      "outputs": [
        {
          "internalType": "address",
          "name": "",
          "type": "address"
        }
      ],
      "stateMutability": "view",
      "type": "function"
    },
    {
      "inputs": [
        {
          "internalType": "uint256",
          "name": "spendingId",
          "type": "uint256"
        },
        {
          "internalType": "bool",
          "name": "vote",
          "type": "bool"
        }
      ],
      "name": "approveSpending",
      "outputs": [],
      "stateMutability": "nonpayable",
      "type": "function"
    },
    {
      "inputs": [
        {
          "internalType": "address",
          "name": "receiver",
          "type": "address"
        },
        {
          "internalType": "uint256",
          "name": "spendingAmt",
          "type": "uint256"
        },
        {
          "internalType": "string",
          "name": "purpose",
          "type": "string"
        }
      ],
      "name": "createSpending",
      "outputs": [],
      "stateMutability": "nonpayable",
      "type": "function"
    },
    {
      "inputs": [
        {
          "internalType": "uint256",
          "name": "depositAmt",
          "type": "uint256"
        }
      ],
      "name": "deposit",
      "outputs": [],
      "stateMutability": "payable",
      "type": "function"
    },
    {
      "inputs": [
        {
          "internalType": "uint256",
          "name": "spendingId",
          "type": "uint256"
        }
      ],
      "name": "executeSpending",
      "outputs": [],
      "stateMutability": "nonpayable",
      "type": "function"
    },
    {
      "inputs": [],
      "name": "minBuy",
      "outputs": [
        {
          "internalType": "uint256",
          "name": "",
          "type": "uint256"
        }
      ],
      "stateMutability": "view",
      "type": "function"
    },
    {
      "inputs": [],
      "name": "shareToken",
      "outputs": [
        {
          "internalType": "contract ShareToken",
          "name": "",
          "type": "address"
        }
      ],
      "stateMutability": "view",
      "type": "function"
    },
    {
      "inputs": [
        {
          "internalType": "uint256",
          "name": "",
          "type": "uint256"
        }
      ],
      "name": "spending",
      "outputs": [
        {
          "internalType": "string",
          "name": "purpose",
          "type": "string"
        },
        {
          "internalType": "uint256",
          "name": "amt",
          "type": "uint256"
        },
        {
          "internalType": "address",
          "name": "receiver",
          "type": "address"
        },
        {
          "internalType": "bool",
          "name": "executed",
          "type": "bool"
        },
        {
          "internalType": "uint256",
          "name": "approvalCount",
          "type": "uint256"
        },
        {
          "internalType": "uint256",
          "name": "currentSum",
          "type": "uint256"
        },
        {
          "internalType": "bool",
          "name": "canExecute",
          "type": "bool"
        }
      ],
      "stateMutability": "view",
      "type": "function"
    },
    {
      "inputs": [],
      "name": "spendingMinVotePercent",
      "outputs": [
        {
          "internalType": "uint256",
          "name": "",
          "type": "uint256"
        }
      ],
      "stateMutability": "view",
      "type": "function"
    },
    {
      "inputs": [
        {
          "internalType": "address",
          "name": "",
          "type": "address"
        }
      ],
      "name": "stakeholders",
      "outputs": [
        {
          "internalType": "uint256",
          "name": "",
          "type": "uint256"
        }
      ],
      "stateMutability": "view",
      "type": "function"
    }
  ],
  "bytecode": "0x60806040523480156200001157600080fd5b5060405162001cc538038062001cc583398181016040528101906200003791906200017e565b83600160006101000a81548173ffffffffffffffffffffffffffffffffffffffff021916908373ffffffffffffffffffffffffffffffffffffffff160217905550826000819055508160028190555080600560006101000a81548173ffffffffffffffffffffffffffffffffffffffff021916908373ffffffffffffffffffffffffffffffffffffffff160217905550600060068190555050505050620001f0565b600080fd5b600073ffffffffffffffffffffffffffffffffffffffff82169050919050565b60006200010b82620000de565b9050919050565b6200011d81620000fe565b81146200012957600080fd5b50565b6000815190506200013d8162000112565b92915050565b6000819050919050565b620001588162000143565b81146200016457600080fd5b50565b60008151905062000178816200014d565b92915050565b600080600080608085870312156200019b576200019a620000d9565b5b6000620001ab878288016200012c565b9450506020620001be8782880162000167565b9350506040620001d18782880162000167565b9250506060620001e4878288016200012c565b91505092959194509250565b611ac580620002006000396000f3fe6080604052600436106100915760003560e01c8063bc570c4711610059578063bc570c471461015a578063c07cfca91461019d578063f2189a6a146101da578063f851a44014610203578063fb0b31891461022e57610091565b806322c451af146100965780636c9fa59e146100bf5780637107d7a6146100ea5780639b0be3e014610115578063b6b55f251461013e575b600080fd5b3480156100a257600080fd5b506100bd60048036038101906100b891906110ee565b610259565b005b3480156100cb57600080fd5b506100d4610405565b6040516100e191906111c1565b60405180910390f35b3480156100f657600080fd5b506100ff61042b565b60405161010c91906111eb565b60405180910390f35b34801561012157600080fd5b5061013c60048036038101906101379190611206565b610431565b005b61015860048036038101906101539190611206565b610735565b005b34801561016657600080fd5b50610181600480360381019061017c9190611206565b610939565b60405161019497969594939291906112f6565b60405180910390f35b3480156101a957600080fd5b506101c460048036038101906101bf919061136c565b610a3d565b6040516101d191906111eb565b60405180910390f35b3480156101e657600080fd5b5061020160048036038101906101fc91906113c5565b610a55565b005b34801561020f57600080fd5b50610218610f1c565b6040516102259190611405565b60405180910390f35b34801561023a57600080fd5b50610243610f42565b60405161025091906111eb565b60405180910390f35b600160009054906101000a900473ffffffffffffffffffffffffffffffffffffffff1673ffffffffffffffffffffffffffffffffffffffff163373ffffffffffffffffffffffffffffffffffffffff16146102e9576040517f08c379a00000000000000000000000000000000000000000000000000000000081526004016102e09061146c565b60405180910390fd5b60006004600060065481526020019081526020016000209050600160065461031191906114bb565b600681905550828282600001919061032a929190610f48565b50838160010181905550848160020160006101000a81548173ffffffffffffffffffffffffffffffffffffffff021916908373ffffffffffffffffffffffffffffffffffffffff16021790555060008160020160146101000a81548160ff021916908315150217905550600081600401819055506000816005018190555060008160070160006101000a81548160ff0219169083151502179055507f8e386a4526cf1ee18c15d781328393b2c66e80d425eb4ec4ed017436bcedcc8d85856040516103f6929190611511565b60405180910390a15050505050565b600560009054906101000a900473ffffffffffffffffffffffffffffffffffffffff1681565b60005481565b600160009054906101000a900473ffffffffffffffffffffffffffffffffffffffff1673ffffffffffffffffffffffffffffffffffffffff163373ffffffffffffffffffffffffffffffffffffffff16146104c1576040517f08c379a00000000000000000000000000000000000000000000000000000000081526004016104b89061146c565b60405180910390fd5b6006548110610505576040517f08c379a00000000000000000000000000000000000000000000000000000000081526004016104fc906115ac565b60405180910390fd5b600015156004600083815260200190815260200160002060020160149054906101000a900460ff1615151461056f576040517f08c379a00000000000000000000000000000000000000000000000000000000081526004016105669061163e565b60405180910390fd5b600115156004600083815260200190815260200160002060070160009054906101000a900460ff161515146105d9576040517f08c379a00000000000000000000000000000000000000000000000000000000081526004016105d0906116aa565b60405180910390fd5b60046000828152602001908152602001600020600101544711610631576040517f08c379a000000000000000000000000000000000000000000000000000000000815260040161062890611716565b60405180910390fd5b60006004600083815260200190815260200160002060020160009054906101000a900473ffffffffffffffffffffffffffffffffffffffff1690508073ffffffffffffffffffffffffffffffffffffffff166108fc60046000858152602001908152602001600020600101549081150290604051600060405180830381858888f193505050501580156106c8573d6000803e3d6000fd5b5060016004600084815260200190815260200160002060020160146101000a81548160ff0219169083151502179055507fa12af03bd76472b1d623840a7a69c81bf67dd0890b8ad2197b838cde14e9c51b3383604051610729929190611511565b60405180910390a15050565b803414610777576040517f08c379a000000000000000000000000000000000000000000000000000000000815260040161076e906117ce565b60405180910390fd5b60005434600360003373ffffffffffffffffffffffffffffffffffffffff1673ffffffffffffffffffffffffffffffffffffffff168152602001908152602001600020546107c591906114bb565b1015610806576040517f08c379a00000000000000000000000000000000000000000000000000000000081526004016107fd9061183a565b60405180910390fd5b80600360003373ffffffffffffffffffffffffffffffffffffffff1673ffffffffffffffffffffffffffffffffffffffff168152602001908152602001600020600082825461085591906114bb565b925050819055507fe1fffcc4923d04b559f4d29a8bfc6cda04eb5b0d3c460751c2402c5c5cc9109c338260405161088d929190611511565b60405180910390a16000600a826108a4919061185a565b9050600560009054906101000a900473ffffffffffffffffffffffffffffffffffffffff1673ffffffffffffffffffffffffffffffffffffffff166340c10f1933836040518363ffffffff1660e01b8152600401610903929190611511565b600060405180830381600087803b15801561091d57600080fd5b505af1158015610931573d6000803e3d6000fd5b505050505050565b600460205280600052604060002060009150905080600001805461095c906118e3565b80601f0160208091040260200160405190810160405280929190818152602001828054610988906118e3565b80156109d55780601f106109aa576101008083540402835291602001916109d5565b820191906000526020600020905b8154815290600101906020018083116109b857829003601f168201915b5050505050908060010154908060020160009054906101000a900473ffffffffffffffffffffffffffffffffffffffff16908060020160149054906101000a900460ff16908060040154908060050154908060070160009054906101000a900460ff16905087565b60036020528060005260406000206000915090505481565b6000600360003373ffffffffffffffffffffffffffffffffffffffff1673ffffffffffffffffffffffffffffffffffffffff1681526020019081526020016000205411610ad7576040517f08c379a0000000000000000000000000000000000000000000000000000000008152600401610ace90611961565b60405180910390fd5b6006548210610b1b576040517f08c379a0000000000000000000000000000000000000000000000000000000008152600401610b12906115ac565b60405180910390fd5b600015156004600084815260200190815260200160002060020160149054906101000a900460ff16151514610b85576040517f08c379a0000000000000000000000000000000000000000000000000000000008152600401610b7c9061163e565b60405180910390fd5b600015156004600084815260200190815260200160002060060160003373ffffffffffffffffffffffffffffffffffffffff1673ffffffffffffffffffffffffffffffffffffffff16815260200190815260200160002060009054906101000a900460ff16151514610c2c576040517f08c379a0000000000000000000000000000000000000000000000000000000008152600401610c23906119cd565b60405180910390fd5b806004600084815260200190815260200160002060030160003373ffffffffffffffffffffffffffffffffffffffff1673ffffffffffffffffffffffffffffffffffffffff16815260200190815260200160002060006101000a81548160ff02191690831515021790555060016004600084815260200190815260200160002060060160003373ffffffffffffffffffffffffffffffffffffffff1673ffffffffffffffffffffffffffffffffffffffff16815260200190815260200160002060006101000a81548160ff0219169083151502179055508015610e11576001600460008481526020019081526020016000206004016000828254610d3091906114bb565b92505081905550600560009054906101000a900473ffffffffffffffffffffffffffffffffffffffff1673ffffffffffffffffffffffffffffffffffffffff166370a08231336040518263ffffffff1660e01b8152600401610d929190611405565b602060405180830381600087803b158015610dac57600080fd5b505af1158015610dc0573d6000803e3d6000fd5b505050506040513d601f19601f82011682018060405250810190610de49190611a02565b600460008481526020019081526020016000206005016000828254610e0991906114bb565b925050819055505b600254600560009054906101000a900473ffffffffffffffffffffffffffffffffffffffff1673ffffffffffffffffffffffffffffffffffffffff166318160ddd6040518163ffffffff1660e01b8152600401602060405180830381600087803b158015610e7e57600080fd5b505af1158015610e92573d6000803e3d6000fd5b505050506040513d601f19601f82011682018060405250810190610eb69190611a02565b60646004600086815260200190815260200160002060050154610ed9919061185a565b610ee39190611a5e565b10610f185760016004600084815260200190815260200160002060070160006101000a81548160ff0219169083151502179055505b5050565b600160009054906101000a900473ffffffffffffffffffffffffffffffffffffffff1681565b60025481565b828054610f54906118e3565b90600052602060002090601f016020900481019282610f765760008555610fbd565b82601f10610f8f57803560ff1916838001178555610fbd565b82800160010185558215610fbd579182015b82811115610fbc578235825591602001919060010190610fa1565b5b509050610fca9190610fce565b5090565b5b80821115610fe7576000816000905550600101610fcf565b5090565b600080fd5b600080fd5b600073ffffffffffffffffffffffffffffffffffffffff82169050919050565b600061102082610ff5565b9050919050565b61103081611015565b811461103b57600080fd5b50565b60008135905061104d81611027565b92915050565b6000819050919050565b61106681611053565b811461107157600080fd5b50565b6000813590506110838161105d565b92915050565b600080fd5b600080fd5b600080fd5b60008083601f8401126110ae576110ad611089565b5b8235905067ffffffffffffffff8111156110cb576110ca61108e565b5b6020830191508360018202830111156110e7576110e6611093565b5b9250929050565b6000806000806060858703121561110857611107610feb565b5b60006111168782880161103e565b945050602061112787828801611074565b935050604085013567ffffffffffffffff81111561114857611147610ff0565b5b61115487828801611098565b925092505092959194509250565b6000819050919050565b600061118761118261117d84610ff5565b611162565b610ff5565b9050919050565b60006111998261116c565b9050919050565b60006111ab8261118e565b9050919050565b6111bb816111a0565b82525050565b60006020820190506111d660008301846111b2565b92915050565b6111e581611053565b82525050565b600060208201905061120060008301846111dc565b92915050565b60006020828403121561121c5761121b610feb565b5b600061122a84828501611074565b91505092915050565b600081519050919050565b600082825260208201905092915050565b60005b8381101561126d578082015181840152602081019050611252565b8381111561127c576000848401525b50505050565b6000601f19601f8301169050919050565b600061129e82611233565b6112a8818561123e565b93506112b881856020860161124f565b6112c181611282565b840191505092915050565b6112d581611015565b82525050565b60008115159050919050565b6112f0816112db565b82525050565b600060e0820190508181036000830152611310818a611293565b905061131f60208301896111dc565b61132c60408301886112cc565b61133960608301876112e7565b61134660808301866111dc565b61135360a08301856111dc565b61136060c08301846112e7565b98975050505050505050565b60006020828403121561138257611381610feb565b5b60006113908482850161103e565b91505092915050565b6113a2816112db565b81146113ad57600080fd5b50565b6000813590506113bf81611399565b92915050565b600080604083850312156113dc576113db610feb565b5b60006113ea85828601611074565b92505060206113fb858286016113b0565b9150509250929050565b600060208201905061141a60008301846112cc565b92915050565b7f4e6f74207468652061646d696e21000000000000000000000000000000000000600082015250565b6000611456600e8361123e565b915061146182611420565b602082019050919050565b6000602082019050818103600083015261148581611449565b9050919050565b7f4e487b7100000000000000000000000000000000000000000000000000000000600052601160045260246000fd5b60006114c682611053565b91506114d183611053565b9250827fffffffffffffffffffffffffffffffffffffffffffffffffffffffffffffffff038211156115065761150561148c565b5b828201905092915050565b600060408201905061152660008301856112cc565b61153360208301846111dc565b9392505050565b7f54686973207370656e64696e67207265717565737420646f6573206e6f74206560008201527f7869737421000000000000000000000000000000000000000000000000000000602082015250565b600061159660258361123e565b91506115a18261153a565b604082019050919050565b600060208201905081810360008301526115c581611589565b9050919050565b7f54686973207370656e64696e6720726571756573742068617320616c7265616460008201527f79206265656e2065786563757465642100000000000000000000000000000000602082015250565b600061162860308361123e565b9150611633826115cc565b604082019050919050565b600060208201905081810360008301526116578161161b565b9050919050565b7f417070726f76616c20766f746573206e6f7420796574206d6574210000000000600082015250565b6000611694601b8361123e565b915061169f8261165e565b602082019050919050565b600060208201905081810360008301526116c381611687565b9050919050565b7f496e73756666696369656e742062616c616e6365210000000000000000000000600082015250565b600061170060158361123e565b915061170b826116ca565b602082019050919050565b6000602082019050818103600083015261172f816116f3565b9050919050565b7f455448207061696420646f6573206e6f7420657175616c2074686520616d6f7560008201527f6e74206f66204554482073706563696669656420696e2074686520617267756d60208201527f656e742100000000000000000000000000000000000000000000000000000000604082015250565b60006117b860448361123e565b91506117c382611736565b606082019050919050565b600060208201905081810360008301526117e7816117ab565b9050919050565b7f4d696e696d756d206465706f73697420697320302e3120455448000000000000600082015250565b6000611824601a8361123e565b915061182f826117ee565b602082019050919050565b6000602082019050818103600083015261185381611817565b9050919050565b600061186582611053565b915061187083611053565b9250817fffffffffffffffffffffffffffffffffffffffffffffffffffffffffffffffff04831182151516156118a9576118a861148c565b5b828202905092915050565b7f4e487b7100000000000000000000000000000000000000000000000000000000600052602260045260246000fd5b600060028204905060018216806118fb57607f821691505b6020821081141561190f5761190e6118b4565b5b50919050565b7f4e6f742061207374616b65686f6c646572210000000000000000000000000000600082015250565b600061194b60128361123e565b915061195682611915565b602082019050919050565b6000602082019050818103600083015261197a8161193e565b9050919050565b7f43616e277420646f75626c6520766f7465210000000000000000000000000000600082015250565b60006119b760128361123e565b91506119c282611981565b602082019050919050565b600060208201905081810360008301526119e6816119aa565b9050919050565b6000815190506119fc8161105d565b92915050565b600060208284031215611a1857611a17610feb565b5b6000611a26848285016119ed565b91505092915050565b7f4e487b7100000000000000000000000000000000000000000000000000000000600052601260045260246000fd5b6000611a6982611053565b9150611a7483611053565b925082611a8457611a83611a2f565b5b82820490509291505056fea2646970667358221220cbb30089b6f2b1da2c2157189ff126022653ac4b07238ff4139aeac1277b16f664736f6c63430008090033",
  "linkReferences": {},
  "deployedLinkReferences": {}
}